S01300004F70656E6C6F675F616C6C2E73726563A5
S11300000C9434000C943E000C943E000C943E007E
S11300100C943E000C943E000C943E000C943E0064
S11300200C943E000C943E000C943E000C943E0054
S11300300C943E000C943E000C943E000C943E0044
S11300400C943E000C943E000C943E000C943E0034
S11300500C943E000C943E000C943E000C943E0024
S11300600C943E000C943E0011241FBECFEFD8E048
S1130070DEBFCDBF0E9440000C9450000C940000E1
S113008085B1806285B92FEF8DE399E421508040DA
S11300909040E1F700C0000085B18F7D85B9F0CFB5
S10700A0F894FFCFFE
S9030000FC
