S01300004F70656E6C6F675F616C6C2E73726563A5
S113000033C0000041C000003FC000003DC00000FC
S11300103BC0000039C0000037C0000035C00000FC
S113002033C0000031C000002FC000002DC000000C
S11300302BC000002AC0000027C0000025C000001B
S113004023C0000021C000001FC000001DC000002C
S11300501BC0000019C0000017C0000015C000003C
S113006013C0000011C0000011241FBECFEFD8E060
S1130070DEBFCDBF21E0A0E0B1E001C01D92A330FE
S1130080B207E1F74CD04CC0BBCF1F920F920FB612
S11300900F9211248F939F9381EB809385008FEDB2
S11300A080938400809101019091020101969093C4
S11300B00201809301019F918F910F900FBE0F90C9
S11300C01F901895809181008260809381008091B7
S11300D06F00816080936F008FB780688FBF81EB62
S11300E0809385008FED8093840021E0309100019E
S11300F08091010190910201332339F080359105FB
S1130100A9F72D981092000105C0C29779F72D9A8E
S1130110209300011092020110920101E7CFD2DF77
S1070120F894FFCF7D
S9030000FC
