S01300004F70656E6C6F675F616C6C2E73726563A5
S113000033C000004CC000004AC0000048C00000DB
S113001046C0000044C0000042C0000040C00000D0
S11300203EC000003CC000003AC0000038C00000E0
S113003036C0000063C0000032C0000030C00000C1
S11300402EC000002CC000002AC0000028C0000000
S113005026C0000024C0000022C0000020C0000010
S11300601EC000001CC0000011241FBECFEFD8E04A
S1130070DEBFCDBF11E0A0E0B1E0ECE7F1E002C0EB
S113008005900D92A230B107D9F721E0A2E0B1E0CA
S113009001C01D92A430B207E1F702D06DC0B0CF09
S11300A06AD080E090E008959C01E0E8F0E080816F
S11300B08083E1E8F0E0808180838081682B608325
S11300C0EFE6F0E090819160908330938500209377
S11300D0840008951092C000A1ECB0E01C92E2EC00
S11300E0F0E010828C9188618C938081866080839B
S11300F01092C50089E18093C40008951F920F9265
S11301000FB60F9211248F939F938BED9BE09093E6
S113011085008093840080910201909103010196EF
S11301209093030180930201019709F42D9A809121
S1130130020190910301039769F42D988091C00006
S113014085FFFCCF809100018093C60010920301CB
S1130150109202019F918F910F900FBE0F901F90EC
S11301601895B8DF64E070E08BED9BE09DDF8FB7FE
S10F017080688FBFFFCFF5DFF894FFCF4D
S105017CAA00D3
S9030000FC
