:1000000033C000004CC000004AC0000048C00000DF
:1000100046C0000044C0000042C0000040C00000D4
:100020003EC000003CC000003AC0000038C00000E4
:1000300036C000007FC0000032C0000030C00000A9
:100040002EC000002CC000002AC0000028C0000004
:1000500026C0000024C0000022C0000020C0000014
:100060001EC000001CC0000011241FBECFEFD8E04E
:10007000DEBFCDBF11E0A0E0B1E0EAEBF1E002C0ED
:1000800005900D92AC30B107D9F721E0ACE0B1E0BA
:1000900001C01D92AE30B207E1F702D08CC0B0CFE4
:1000A00087D080E090E008959C01E0E8F0E0808156
:1000B0008083E1E8F0E0808180838081682B608329
:1000C000EFE6F0E09081916090833093850020937B
:1000D000840008959091C00095FFFCCF8093C600E6
:1000E0000895EF92FF920F931F93CF93DF938C01AC
:1000F0007B01EC01CE01801B910B8E159F051CF43A
:100100008991E8DFF7CFDF91CF911F910F91FF9099
:10011000EF900895E1ECF0E0808188618083E2EC6B
:10012000F0E08081866080831092C50089E1809331
:10013000C40008951F920F920FB60F9211248F934F
:100140009F938BED9BE0909385008093840080913A
:100150000C0190910D01019690930D0180930C017B
:100160009F918F910F900FBE0F901F901895D2DF27
:1001700064E070E08BED9BE097DF8FB780688FBF06
:1001800080910C0190910D01019709F42D988091B7
:100190000C0190910D010A9799F76BE070E080E0F7
:1001A00091E09FDF2D9A10920D0110920C01E8CF83
:0A01B000259A15B8DCDFF894FFCFA4
:0C01BA0068656C6C6F20776F726C6400DD
:00000001FF
