:1000000033C0000041C000003FC000003DC0000000
:100010003BC0000039C0000037C0000035C0000000
:1000200033C0000031C000002FC000002DC0000010
:100030002BC000004EC0000027C0000025C00000FB
:1000400023C0000021C000001FC000001DC0000030
:100050001BC0000019C0000017C0000015C0000040
:1000600013C0000011C0000011241FBECFEFD8E064
:10007000DEBFCDBF21E0A0E0B1E001C01D92A23003
:10008000B207E1F702D07BC0BBCF74D080E090E034
:10009000089595B1982B2091000130910101992389
:1000A00021F026173707A1F403C02417350781F480
:1000B00045B121E030E0B90102C0660F771F8A9593
:1000C000E2F7CB01842785B910920101109200015B
:1000D00008951F920F920FB60F9211242F933F9302
:1000E0004F935F936F937F938F939F93AF93BF9340
:1000F000EF93FF938FED91EB9093850080938400B5
:1001000080910001909101010196909301018093EB
:10011000000142E350E060E570E085E090E0B9DF87
:10012000FF91EF91BF91AF919F918F917F916F91CF
:100130005F914F913F912F910F900FBE0F901F90A5
:1001400018959C01E0E8F0E080818083E1E8F0E030
:1001500080818083908192609083EFE6F0E09081CF
:100160009160908330938500209384008FB78068DE
:100170008FBF089525988FED91EBE3DFFFCFF894C3
:02018000FFCFAF
:00000001FF
